:020000040800F2
:10000000484F0020A102000827370008D536000815
:100010002537000839200008B53A00080000000024
:1000200000000000000000000000000009020008BD
:1000300059220008000000004D0200085539000850
:10004000BB020008BB020008BB020008BB0200089C
:10005000BB020008BB020008BB020008BB0200088C
:10006000BB020008BB020008BB020008BB0200087C
:10007000BB020008BB020008BB020008BB0200086C
:10008000BB020008BB020008BB020008BB0200085C
:10009000BB020008BB020008BB020008BB0200084C
:1000A000BB020008BB020008BB020008BB0200083C
:1000B000BB020008BB020008BB020008BB0200082C
:1000C000BB020008BB020008BB020008BB0200081C
:1000D000BB020008BB020008BB020008BB0200080C
:1000E000BB020008BB020008BB02000800F002F8D7
:1000F00000F07BF80AA090E8000C82448344AAF147
:100100000107DA4501D100F070F8AFF2090EBAE844
:100110000F0013F0010F18BFFB1A43F0010318473B
:10012000109B0000309B00000A444FF0000C10F8B8
:10013000013B13F0070408BF10F8014B1D1108BF65
:1001400010F8015B641E05D010F8016B641E01F805
:10015000016BF9D113F0080F1EBF10F8014BAD1C55
:100160000C1B09D16D1E58BF01F801CBFAD505E073
:1001700014F8016B01F8016B6D1EF9D59142D6D3CD
:10018000704700000023002400250026103A28BFF5
:1001900078C1FBD8520728BF30C148BF0B607047F9
:1001A000662909F07D83642900F0F680752900F046
:1001B000F380782900F02C81732900F0228500203B
:1001C00070471FB59DE8030001F060F900F084FD61
:1001D00004000020002109F0E3F8E06000F094FE44
:1001E0001FBD10B500F0F9FE10BD00F02DFF114647
:1001F000FFF7E7FF05F062FB01F01CF903B4FFF71E
:10020000F0FF03BC01F0B4FA224B19680868B0E8AB
:10021000F00F80F30988BFF36F8F4FF0000080F379
:1002200011884EF00D0E704700000000064800686F
:10023000006880F3088862B661B6BFF34F8FBFF3E2
:100240006F8F00DF00BF00BF08ED00E0EFF3098013
:10025000BFF36F8F0F4B1A6820E9F00F106008B5DD
:100260004FF0500080F31188BFF34F8FBFF36F8FB3
:1002700007F044FE4FF0000080F31188BDE808400D
:1002800019680868B0E8F00F80F30988BFF36F8F32
:10029000704700BF44000020EFF305807047000066
:1002A0000948804709480047FEE7FEE7FEE7FEE70A
:1002B000FEE7FEE7FEE7FEE7FEE7FEE70448054946
:1002C000054A064B704700006D390008ED00000834
:1002D000482D0020484F0020482F0020482F0020A4
:1002E0000FB4044910B503AA029800F08FFC10BCAB
:1002F0005DF814FB3C2C002070B50446856900684D
:10030000C10601D5302600E02026C00707D070BD09
:10031000D4E9012130469047206A401C20626D1EBE
:10032000F6D570BD70B5044685690078C00707D161
:1003300070BDD4E9012120209047206A401C206232
:100340006D1EF6D570BD70B50C460546012A05D068
:100350002878800600D5EA69002302E0012305E041
:100360005B1C934202D2E05C0028F9D1A869E61830
:10037000C01AA861286A184428622846FFF7BCFF03
:1003800004E0D5E9012114F8010B9047B442F8D3F9
:100390002846FFF7C7FF70BD2DE9F041064600244F
:1003A00010687529314616A510D0AFF300800028DB
:1003B00002DA404213A507E031688A0701D512A589
:1003C00002E0490704D511A5012401E0AFF3008044
:1003D00000210A2206F1240709E0B0FBF2FCB0FB81
:1003E000F2F302FB1C00303078541846491C0028F8
:1003F000F3D123462A463046BDE8F04100F087B9E4
:10040000000000002D0000002B0000002000000074
:1004100070B504460D4621461068AFF30080218870
:10042000090502D50F4A7A4402E00E4A7A440E3298
:10043000002104F1240305E000F00F060009965D99
:100440005E54491C0028F7D120780023000704D50A
:10045000702D02D009B1022311322046BDE8704050
:1004600000F055B9139500002DE9F05F8946044668
:100470004FF0000ADFF824B1FB44C0F820A020466A
:10048000E168884700287DD0252806D0D4E90121DD
:100490009047206A401C2062F1E700255F46204615
:1004A000E16888472028064607DB312E05D2B819B7
:1004B00010F8200C08B10543F1E7A80701D525F095
:1004C0000405C4F81CA00027C4F818A02A2E09D0DF
:1004D000304603F056FD38B304EB8708303EC8F8C9
:1004E000186019E059F8041B204604EB870291615B
:1004F000E1688847012F064618D1E069002820DA14
:1005000025F020051DE0D8F8180000EB800006EB70
:1005100040003038C8F818002046E1688847064691
:1005200003F02FFD0028EED1012F0AD02E2E08D186
:100530002046E16888477F1C0646022F45F02005CB
:10054000C4DBA069002803DA404245F00105A06140
:10055000E80701D025F01005A6B1A6F14100192841
:1005600002D8203645F400654A46314620462560CB
:100570004D46FFF715FE60B1012807D0ED1D25F0AF
:10058000070000E007E000F1080978E705F1040939
:1005900075E730467AE7206ABDE8F09FE9940000ED
:1005A000032A40F2308010F0030C00F0158011F89F
:1005B000013BBCF1020F624498BF11F801CB00F877
:1005C000013B38BF11F8013BA2F1040298BF00F8CB
:1005D00001CB38BF00F8013B11F0030300F0288382
:1005E000083AC0F0088051F8043B083A51F804CBAF
:1005F000A0E80810F5E7121D5CBF51F8043B40F875
:10060000043BAFF30080D20724BF11F8013B11F87F
:1006100001CB48BF11F8012B24BF00F8013B00F8C3
:1006200001CB48BF00F8012B704702F0FF0343EAFB
:10063000032242EA024200F02FBB4FF0000200B555
:10064000134694469646203922BFA0E80C50A0E8F5
:100650000C50B1F12001BFF4F7AF090728BFA0E8A3
:100660000C5048BF0CC05DF804EB890028BF40F86F
:10067000042B08BF704748BF20F8022B11F0804FB1
:1006800018BF00F8012B70474FF0013C50F8042BC5
:1006900051F8043B9A4221D1A2EB0C03934313EA95
:1006A000CC1317D150F8042B51F8043B9A4215D1C2
:1006B000A2EB0C03934313EACC130BD150F8042B99
:1006C00051F8043B9A4209D1A2EB0C03934313EA7D
:1006D000CC13DBD04FF00000704700BFD01A01BA36
:1006E000B1FA81F101F0180122FA01F0CB40C1F119
:1006F0002001DBB2C0B2C01A2CFA01F3D11A914327
:1007000011EAC311E6D170477047704770472DE971
:10071000F0470D4699469246044600F124080168C8
:10072000880604D5E06921F01001216000E0012075
:10073000A84201DD471B00E00027A1697A1902EBFE
:100740000900081AA0612078C00602D42046FFF7ED
:10075000D3FD002608E0D4E901211AF806009047ED
:10076000206A401C761C20624E45F4DB2078C006CF
:100770000AD52046FFF7C0FD06E0D4E9012130206C
:100780009047206A401C2062381EA7F10107F4DC64
:1007900007E0D4E9012118F805009047206A401CC1
:1007A0002062281EA5F10105F3DC2046FFF7BAFD03
:1007B0002078000602D50220BDE8F0870120FBE783
:1007C00070472DE9FF4F0C461E464FF0FF378BB0A8
:1007D000D2E90001DDF860800A908A46C1F30A552B
:1007E00005B93D46002108464FF00000BAF1000F60
:1007F00000F4400005DA00EB80004FF4400101EA0C
:1008000050004FEA9059B9F1010F00DDB9460A983E
:1008100050EA4A000ED044F61050A5F2FF35454389
:100820002F14B8F1000F1ED07542291E1EDDC9F12C
:1008300000021CE0B8F1010F4FF0000001D03021A0
:1008400003E0F24305E02154401CB042FBDB30469C
:100850000022002121540B99C1F80880C1E9002031
:100860000FB0BDE8F08FBD1B6D1CDEE74A4600DA15
:10087000694206A800F0D2FA06AB93E8070003AB82
:1008800083E8070050460A9901F00EF88DE807004A
:10089000A0F500501F3800900398002D0ADD42F2A9
:1008A0001F014A460844002303A90390684601F04B
:1008B00077FA09E0A0F500504A461F38002303A943
:1008C0000390684601F081FA8DE807000004000CEF
:1008D00003D04FF0FF30410800E01046B8F1000FA0
:1008E00003D00022009215461EE0751E05D400F0CC
:1008F000F7F9303262556D1EF9D5B346012208432F
:1009000002D000227F1C04E02078302801D1002290
:100910007F1E002A099784D01DE0112D07DA00F010
:10092000DFF9303262556D1C50EA0102F5D10843FF
:1009300002D00098C8B10EE00021681E05E0235CDB
:10094000625C63542254401E491C8142F7DBAB4673
:10095000A81B401E0990002004F80B000B98099A70
:10096000C0F80880C0E9002B7AE711264FF0000894
:1009700057E72DE9F04F88460446D21D22F00701C3
:1009800091B0D1E90001CDE90A0103F0E6FA02468F
:100990000B98C00F01D02D2007E02068810701D5FA
:1009A0002B2002E0202101EAC000032A099001D097
:1009B000072A05DB03464146204600F0EFF90BE12C
:1009C0002078800601D5E06900E00620B8F1650FC7
:1009D000814606D0B8F1660F18D0B8F1670F70D114
:1009E00031E00020B9F1110F009001DB112301E08B
:1009F00009F101030AAA01A90CA8FFF7E2FEDDE94B
:100A00000C70002609F10105834647E001204B46A2
:100A100000904FF000470AAA01A90CA8FFF7D1FEE9
:100A2000DDE90DB00C995D46002610B909F1010011
:100A30000D18B9EB050003D4C0F1FF3609F101052B
:100A4000A5EB09002BE0B9F1010F01DA4FF0010924
:100A50000020B9F1110F0090484601DD112300E09C
:100A600003460AAA01A90CA8FFF7ABFEDDE90C704A
:100A70004D4600268346207800070AD4AB4500DAAD
:100A80005D4601A8012D04DD411911F8011C302932
:100A900007D04F4502DA17F1040F04DA012082462D
:100AA0000FE06D1EEEE7002F02DCED1B3E4403E07D
:100AB000781CA84200DD7D1CB81B00F1010A4FF034
:100AC00000472078000703D4AA4501DB4FF0FF3A26
:100AD0000021B7F1004F0DF143088DF8431024D0E9
:100AE00002202B23002F01DA7F422D230A21021E30
:100AF000A0F1010000DC5FB197FBF1FC97FBF1F284
:100B000001FB1C7C17460CF1300C08F801CDEEE718
:100B1000A8F1010003702188090501D5452100E0F5
:100B20006521A0F1010800F8011C09980FA9A1EBAB
:100B30000807FF1D00B10120411901EBEA70A1690E
:100B40003844081A401EA0612078C00602D420460E
:100B5000FFF7D2FB099828B1D4E901219047206A18
:100B6000401C20622078C00622D52046FFF7C4FB37
:100B70001EE0002E04DBB34502DD01A8805D00E02D
:100B80003020D4E901219047206A401C2062761C65
:100B9000AAF101005FEA000A0AD100F09DF8C068DE
:100BA0000168405CD4E901219047206A401C206222
:100BB000281EA5F10105DCDC07E0D4E9012118F8C5
:100BC000010B9047206A401C2062381EA7F10107E4
:100BD000F3DC2046FFF7A6FB032011B041E610B579
:100BE000436913B1AFF3008001E0FFF7ACFB0120D4
:100BF00010BD127800F124010A7000224A7001220F
:100C0000EDE711684FF0FF32E9E70000074B70B5E0
:100C10000D467B4400F0AFF80446284600F070F91A
:100C200010B14FF0FF3070BD204670BD5B4B00002F
:100C300010B5203AC0F00B80B1E81850203AA0E877
:100C40001850B1E81850A0E81850BFF4F5AF5FEAAB
:100C5000027C24BFB1E81850A0E8185044BF18C95E
:100C600018C0BDE810405FEA827C24BF51F8043B05
:100C700040F8043B08BF7047D20728BF31F8023B59
:100C800048BF11F8012B28BF20F8023B48BF00F8ED
:100C9000012B70474FF000020429C0F0128010F0C1
:100CA000030C3FF4CCACCCF1040CBCF1020F18BF28
:100CB00000F8012BA8BF20F8022BA1EB0C01FFF7D5
:100CC000BEBC5FEAC17C24BF00F8012B00F8012BF9
:100CD00048BF00F8012B704700487047042D0020E2
:100CE00030B5B0F10A024FEA900E71F100034EEAFE
:100CF000817EB0EB0E0061EB91014FEA101E4EEACF
:100D0000017E10EB0E0041EB11114FEA102E4EEA5E
:100D1000016E10EB0E0041EB11214FEA104E4EEA2E
:100D2000014E10EB0E0041EB1141401841F1000162
:100D30004FEAD00040EA41704FEAD10110EB800544
:100D40004FEA810444EA907444EB01046D1944EBCA
:100D50000404521BA3414FF0000348BF0A3200D5E0
:100D600030BD401C41F1000130BD000001694A1C4A
:100D700002610878704700B58FB0CDE901310021DC
:100D8000059105497944CDE9031011466846FFF7FE
:100D90006BFB0FB000BD0000E5FFFFFF2DE9F04148
:100DA0001F46044603260168072A01F4006004DB9D
:100DB00008B116A505E016A503E008B115A500E0E9
:100DC00015A521F010002060A069C01EA0610FB120
:100DD000401EA0612046FFF78FFA4FB1D4E90121F0
:100DE00038469047206A401C2062C01C206206E002
:100DF000206AFAE7D4E9012115F8010B9047761E25
:100E0000F8D22046FFF78EFABDE8F0814E414E0041
:100E10006E616E00494E4600696E66002DE9F0472E
:100E2000814616468AB0354878440DC88DE80D00D5
:100E300032487844801C03AC0DC884E80D0041F6AC
:100E40009B300844372190FBF1F290FBF1F5A5F1BE
:100E5000800501FB12041B3C02D56442012000E026
:100E60000020DFF898A080460027FA44AAF1BE0AC5
:100E70000EE0E0070AD03246684607EB470101233F
:100E80000AEB810100F0A1FF8DE8070064107F1CD0
:100E9000002CEED1194F7F44AE3F19E0E80715D082
:100EA00007EB04100DF1180A90E80E008AE80E0016
:100EB000C068F04201D1981908903246012306A972
:100EC00003A800F082FF03AB83E807006D10641CE9
:100ED000002DE3D14FF0010332466946B8F1000F0F
:100EE00003A802D000F05CFF01E000F06EFFC9E94A
:100EF0000001C9F808200AB0BDE8F087C88B0000DF
:100F0000007B00F08000704710B542485421FFF785
:100F100094FB41485421FFF790FB40485421FFF7D0
:100F20008CFB3F493B483C4A3F4B08603D490A60C7
:100F30003A491960531C0365481C10650120086577
:100F40003B48344A39A1784400F0D8F920B93848F0
:100F500078440A3800F077FA37482F4A35A17844A8
:100F600000F0CCF920B9344878440A3800F06BFA24
:100F700032482A4A2FA1784400F0C0F920B92F48FE
:100F800078440A3800F05FFA40232248DC00002150
:100F9000224600F090F920B125487844543800F0FA
:100FA00052FA1D4822464023002100F084F920B166
:100FB00021487844543800F046FA18482246102355
:100FC000002100F078F9002806D01C487844BDE8DC
:100FD0001040563800F037BA10BD104870B5006D9B
:100FE00020F001040B4800F0FFF90B4800F0FCF979
:100FF0000A4800F0F9F909E0206D20F001052046CB
:1010000000F0F2F9204600F044F82C46002CF3D111
:1010100070BD0000E82B00203C2C0020902C00200C
:10102000D0010020D4010020D8010020720000006F
:10103000B289000077000000A189000091890000BA
:1010400000487047E42C00207546FFF7F9FFAE46D4
:1010500005006946534620F00700854618B020B5C4
:10106000FFF72CF9BDE820404FF000064FF00007D5
:101070004FF000084FF0000B21F00701AC46ACE840
:10108000C009ACE8C009ACE8C009ACE8C0098D46AD
:10109000704770B50446051F00F0DCF90068002CAD
:1010A00014BF446870BD002C18BFAC423CBF204642
:1010B0006468F8D301680A18AA4218BF456003D1D2
:1010C0002A6805461144016028684119A1421CBFE5
:1010D0006C6070BD6168696021680844286070BDFB
:1010E0002DE9F04705460C46C86820F4201040F46E
:1010F0008000C860800602D5084600F0F8FAE06873
:1011000041F282014FF0FF390140022903D020460D
:1011100000F096FAB5E000F42041B1F5004F0FD190
:10112000C00306D56168E06A884200D8084660605E
:1011300006E02069E0626060606902F02BFFA06158
:10114000A0680022EEB200280DDAE1688B050AD40F
:10115000C043A06041F490302260E0606068411CB0
:1011600061600670A5E0E0689046226040F400509F
:10117000E060206968BB606902F00EFF012704F19E
:101180002405A0B1A08910F4407F08D0E06900F0E8
:10119000ACF9206118B1E06840F4006016E0E76146
:1011A0002561E06820F4407040F480600EE0E06962
:1011B00000F09BF900282061F1D0E06840F4006065
:1011C00010F4407FE06002D140F48070E06020695C
:1011D0006060E06825696FF0010AC1051FD561688C
:1011E000E06A884200D80846411B04D022462846BF
:1011F00000F030FAF0BBE068010203D5E562C4E913
:10120000015854E0691CE1626160E16940F480309A
:10121000491EC4E9021030462E70BDE8F087010275
:1012200002D500F480320AE06068411C61600670FB
:10123000E0680A2E40F48030E06006D00022E16AC7
:101240006068814203D90B4602E00122F7E70346BA
:10125000A7895B1B7F0503D4E7699F4200DDE2B1EC
:10126000814200D80146E5620F1AC4E90158002BFB
:1012700009DD00E005E022461946284600F0EAF9BB
:1012800008B14846C9E747B1A069E5626560C01B7F
:10129000A061E06840F01000E060E068000208D55E
:1012A0006168A069E562491B08446560A061504619
:1012B000B3E73046B1E770B5C468A50713D065023F
:1012C00011D4B2F5807F09D0B2F5007F06D0B2F517
:1012D000806F08D1012300F1240106E05D1E6FF04C
:1012E0007F46B54201D3012070BD0161C3614160F9
:1012F00024F470611143C160002070BD2DE9F041FC
:101300000C4607461646104600F06EF82078611C21
:1013100061280AD0722802D077283CD102E001254A
:10132000002405E00225042402E0082448F2020516
:1013300011F8010B2B2806D0622809D011F8010CF6
:1013400074280AD00BE045F0030544F00204EFE7EF
:1013500045F0040544F00104EAE744F0100438467F
:10136000214602F01BFE411C15D000213161716045
:101370004FF40071F560F1617061200704D53046CB
:101380000222002100F0E0F8306D40F001003065ED
:101390003046BDE8F0810020FBE72DE9F0410D4625
:1013A0000646104C206DC10704D0410804D020F03F
:1013B0000104F7E722460EE0542000F096F80700FB
:1013C0000ED0206D47F001010843542120653846B6
:1013D000FFF733F93A4629463046BDE8F0418DE73C
:1013E0000020D6E7E82B00202DE9F04704464FF017
:1013F00000094FF0FF37C568D4E90486A80707D075
:10140000204600F051F9304602F0C2FD002802DA11
:101410003846BDE8F087280502D54046FFF739FE7B
:101420004C212046FFF709F9206D20F001002065CE
:101430004846EEE710B50446AFF300802046BDE80D
:101440001040FEF7DBBE10B500F078F9BDE81040A3
:1014500000F06EB900487047EC2C002070477047D0
:101460007047704738B504460A4600206946AFF316
:101470000080002808BF38BD02460099204600F0D1
:1014800084F9012038BD012000F0D3B9F8B5AFF3DD
:101490000080054600200C46102000BF0646A81913
:1014A000A0420DD9324669460020AFF30080070004
:1014B00008BF00F0BEF90098A04218BF0546C41945
:1014C000FFF7C8FF05600746F01D20F0070046192A
:1014D000284600F053F9B44208BFF8BDA21B3146BC
:1014E0003868BDE8F84000F050B970B50646FFF71F
:1014F000B1FF056806F10B0020F00704B4429CBF61
:10150000002070BD2B466A68BAB11068A04210D3A3
:1015100004F1080188423CBF5068586007D3516805
:10152000101941601168091B016058601460101D9A
:1015300070BD13465268002AE7D121462846FFF7BE
:1015400091FF0028DED170BD2DE9F041044616461A
:101550000D464769007B80072ED0384602F01CFDFF
:1015600050BB3EB3012E02D0022E25D104E020460E
:1015700000F025F905441DE0384602F00BFDE16856
:10158000002841F01001E16005DA204600F058F82B
:101590000120BDE8F081C9030BD56268E16A914280
:1015A00000D81146A26911442269891A814200DDDE
:1015B00008460544002D01DA0220EAE7E16A606886
:1015C000E268814206D29103E06203D522F4003141
:1015D00041F01002A6690027AE4213DCE16A8142A5
:1015E00001D90B4600E0034603EB060C2369ACEB84
:1015F000030CAC4506DD814201D98C4600E08446EF
:101600009C4505D1A760276042F02000A5620DE04F
:10161000AD1BE669AE1B8142A66000D90846C01A20
:10162000281A20605819606022F020000349084001
:10163000E060002084F84870ABE70000BFCFD7FF20
:10164000C16821F4001141F08001C1600021816076
:10165000016070472DE9F047814614460E464FF071
:10166000FF383248D5685769054209D03846A16924
:1016700002F0C8FC002811DB2C48C0430540E5609F
:101680002B4632464946384602F0BEFCA16920F09E
:101690000042B21A11440028A16103D02046FFF78E
:1016A000CFFF4046BDE8F08770B504460569C06AC3
:1016B0006168884200D80846E16821F42011E160A1
:1016C000C90312D5A84208D02246411B2846FFF77D
:1016D000C1FF10B14FF0FF3070BD0020E562C4E9DA
:1016E0000150E06820F48030E060002070BD10B54B
:1016F0000446C06820F02000E060A16AA06988422A
:101700000DD02046FFF7D0FFE06820F4405040F0B5
:101710001000E060A06AA0612069E062606044F2AD
:101720004001E0688843E06010BD00001000020046
:10173000002801D000F01CB87047000010B5014629
:1017400002A000F05DF8012010BD0000534947528F
:10175000545245443A2052656469726563743A2074
:1017600063616E2774206F70656E3A200000000080
:1017700001491820ABBEFEE72600020000210160EF
:10178000C0E90110704710207047034640688C463E
:10179000002818BF88423CBF03464068F8D3186849
:1017A0001844884207D00CF1030020F00700001D08
:1017B000411A521A0146081D0A60FFF76ABC10B5AB
:1017C0000146C268900703D0900607D5886A0AE0F0
:1017D00000F03EF801210160881E10BD8B69486849
:1017E00018440B69C01A91F848301BB191F84910A0
:1017F000401A10BD1103FCD50028FADD401E10BDB3
:1018000070B505460C460A2000E06D1C00F018F883
:1018100035B128780028F8D102E0641C00F010F8F7
:1018200014B120780028F8D1BDE870400A2000F0FB
:1018300007B810B500F010F8BDE81040FFF778BF0A
:1018400008B569468DF800000320ABBE08BD70479F
:1018500000487047E42C002010B5012805D0002175
:1018600003A0FFF7CDFF012010BD09A1F8E700009C
:1018700053494752544D454D3A204F7574206F6679
:101880002068656170206D656D6F727900000000E1
:101890003A2048656170206D656D6F727920636FC5
:1018A00072727570746564005FEA400C08BF91F055
:1018B000000F4FEA8C234FEAC12243EA51514FEA0D
:1018C0001C5018BF00F5F0404FEA300018BF41F03F
:1018D00000415FEA6C5C00F02980BCF1FF3F08BF6B
:1018E00040F080407047130C06BF12044FF0100CFC
:1018F0004FF0000C130E04BF12020CF1080C130F72
:1019000004BF12010CF1040C930F04BF92000CF100
:10191000020CD30F04BF52000CF1010C11464FF022
:101920000002A0F11F00A0EB0C00704711F0004F67
:1019300008BF704731F000413FF4D5AF0B0C06BF34
:1019400009044FF0100C4FF0000C0B0E04BF0902FD
:101950000CF1080C0B0F04BF09010CF1040C8B0FE8
:1019600004BF89000CF1020CCB0F04BF49000CF13D
:10197000010CCCF12003A0EB0C0022FA03F302FAD5
:101980000CF241EA030100F10100704720F07F4CA6
:1019900080EA030023F07F47ACEB070303F57C5399
:1019A00000F0004003F1FF032DE980494FEA154B99
:1019B00009B44FEA144325EA0B4E24EA03480FF218
:1019C000042606EB132749083E785FEA320203FB40
:1019D0000667C7F5000707FB06F64FEA54374FEADC
:1019E000D64606F1020607FB066CCCF1005C4FEA16
:1019F0001C472CEA074C07FB06F40CFB06F504EB2E
:101A000015464FEA961634BF00204FF000404FEACB
:101A1000D13706FB07FC4FEA1C4C0CFB0BF7D21B23
:101A200003FB0CF761EB07010CFB0EF7B0EB074073
:101A300072EB17420CFB08F734BFA2EB0742B2EB84
:101A4000074261EB17414FEA0C444FEA910706FB4E
:101A500007FC4FEA1C4C0CFB0BF7B0EBC74072EBDA
:101A6000573203FB0CF734BFA2EBC742B2EBC742BD
:101A700061EB57310CFB0EF7B0EBC70072EB5772FE
:101A80000CFB08F734BFA2EBC702B2EBC70261EB55
:101A90005771039F4FEA816141EA921104EBCC0434
:101AA0004FEAD1374FEA826206FB07FC42EA901206
:101AB0004FEA80604FEA1C4C0CFB0BF7D21B03FB78
:101AC0000CF761EB07010CFB0EF7B0EB074072EB74
:101AD00017420CFB08F734BFA2EB0742B2EB0742F8
:101AE00061EB17414FEA8C554FEA910704EB9C24B8
:101AF00006FB07FC4FEA1C4C0CFB0BF7B0EBC74096
:101B000072EB573203FB0CF734BFA2EBC742B2EBC8
:101B1000C74261EB57310CFB0EF7B0EBC70072EB1D
:101B200057720CFB08F734BFA2EBC702B2EBC70237
:101B300061EB577115EB4C254FEA816141EA921137
:101B40004FEA82624FEAD13742EA901206FB07FC65
:101B500044F100044FEA80604FEA1C4C0CFB0BF789
:101B6000D21B03FB0CF761EB07010CFB0EF7B0EB8C
:101B7000074072EB17420CFB08F734BFA2EB074299
:101B8000B2EB074261EB174115EB1C154FEA8131AF
:101B900041EA92414FEA823242EA90424FEA803073
:101BA0004FEA0C7644F1000448EA03434EEA0B483E
:101BB0004FF0000EB2EB080C71EB030724BF624636
:101BC00039464EEB0E0E4FF0000B001852414941C2
:101BD0004BEB0B0BB2EB080C71EB03077BF1000B2B
:101BE00024BF624639464EEB0E0E4FF0000B001834
:101BF000524149414BEB0B0BB2EB080C71EB030765
:101C00007BF1000B24BF624639464EEB0E0E51EAC3
:101C1000020718BF46F0010616EB0E7655F10002DA
:101C200054F1000103D5BDE88901BDE80088BDE895
:101C30008901BDE80048B619524141EB0101A3F109
:101C40000103704780807F7E7D7C7B7A7978777610
:101C500076757473727171706F6E6E6D6C6C6B6A89
:101C60006A69686867666665646463636261616027
:101C7000605F5F5E5E5D5D5C5C5B5B5A5A595958A4
:101C8000585757565655555554545353525252510E
:101C9000515050504F4F4F4E4E4D4D4D4C4C4C4B64
:101CA0004B4B4A4A4A4949494848484747474746AB
:101CB00046464545454444444443434343424242E7
:101CC00042414141002B9C4630D477002BD01CB5BB
:101CD0004FEA370703B44FF010004FF01001BAF18C
:101CE000000F06D0BCF1000FDCBF40F0080040F050
:101CF00008014FF000000FBCBDE810400BF1010BD4
:101D0000BBF1010F08BF5FEA170722BF12F1010202
:101D100011F101014FF0004143F1000300F00040D8
:101D200043EA00007047F9D35708D0E746EA064671
:101D300013F1400F4FEA16461FDD13F1200FDFBFEE
:101D400016430A46002120335B42BED0C3F1200770
:101D500046EA064602FA07F74FEA164646EA07063B
:101D6000C3F1200722FA03F201FA07F721FA03F17F
:101D70004FF0000342EA0702A7E746EA020646EAF6
:101D800006464FEA164646EA0106BCBF46EA064644
:101D9000360C4FF000034FF000024FF0000194E7C3
:101DA0002DE9804C9A46934670B491E8380007C8F4
:101DB00031EA400C48BF34EA430C03D5FFF7E6FD97
:101DC000FFF780FFF0BCBDE8008C2DE9804C9A46FF
:101DD000934670B491E8380007C810F0804F08BFF0
:101DE00013F0804F03D100F005F8FFF76BFFF0BC54
:101DF000BDE8008C20F07F4780EA030023F07F4C91
:101E000007EB0C03A3F57C5300F00040A3F1FE03A5
:101E100092F0000F00F0B38095F0000F00F0778093
:101E20002DE901494FEA11404FEA144621EA0048E2
:101E300000FB06FC24EA064708FB06F607FB08F849
:101E400000FB07F718EB06484CEB164C4FEA124B19
:101E500018EB07484FEA15464CEB174022EA0B4EA9
:101E60000BFB06FC25EA06470EFB06F607FB0EFEFB
:101E70000BFB07F71EEB064E4CEB164C4FF0000623
:101E80001EEB074E4CEB174B18EB0B0840F1000014
:101E900018EB0E0B58EB000840F100008F1A4FF0C2
:101EA00000013CBFC943661B14BFB5EB040C002105
:101EB0003CBFC943F61B4FEA17444EEA8E0E27EA91
:101EC00004454FEA1C4704FB07622CEA074C05FB5C
:101ED00007F70CFB05F604FB0CFC16EB074642EB80
:101EE000174216EB0C4642EB1C421BEB060658EB66
:101EF0000202414146EA9E0601D5BDE80189B619B4
:101F0000524141EB0101A3F10103BDE801894FEA10
:101F100014454FEA114724EA054621EA074C05FB20
:101F200007F406FB07F70CFB06F105FB0CFC11EBB5
:101F3000074144EB17444FEA124711EB0C4144EBC5
:101F40001C4422EA074C05FB07F206FB07F70CFBD3
:101F500006F605FB0CFC16EB074642EB174216EBA8
:101F60000C4642EB1C456A1854F1000148BF70470B
:101F7000B619524141EB0101A3F10103704795F0FD
:101F8000000F37D04FEA11424FEA144721EA0246C8
:101F900024EA074C02FB07F106FB07F70CFB06F4EB
:101FA00002FB0CFC14EB074441EB17414FEA1547C9
:101FB00014EB0C4441EB1C4125EA074C02FB07F5EE
:101FC00006FB07F70CFB06F602FB0CFC16EB0746BC
:101FD00045EB174516EB0C4645EB1C42121951F127
:101FE000000148BF7047B619524141EB0101A3F10E
:101FF000010370474FEA14454FEA114724EA0546AA
:1020000021EA074C05FB07F106FB07F70CFB06F27C
:102010004FF0000605FB0CFC12EB074241EB1741A9
:1020200012EB0C4251EB1C4148BF7047921841EB38
:102030000101A3F101037047FEE700002DE9F84319
:102040000F4680460025062220494FF41060009577
:1020500001F062FD1D4C20786178E2780843A17898
:102060001143084321790843617908430DD1257054
:1020700008206070DC20A070E57025716571062273
:1020800021464FF4106001F0B5FD114E114886F85D
:102090000280F763E1780A18207983186279484052
:1020A000134450401844B063042269464FF47060F2
:1020B00001F0A0FD04226946900101F09BFDF5614D
:1020C0000A20306275703570BDE8F883C0010020C9
:1020D00080010020785634122DE9F84F5B4C2078AF
:1020E000062804BF0520BDE8F88FA0784FF44271A0
:1020F00001EB401001F0E0FC222805D0002344222F
:102100000221A07805F0BEFB012504F09BF85049A0
:1021100094F900300A2600270A1FC0B2A9464FF0E2
:102120000308052B6FD2DFE803F0030A194A6600A3
:102130000F704F708F70CF7005F03EF883E002286B
:102140005ED1E06B027C0A70427C4A70827C8A70AD
:10215000C07CC87005F04AF902204AE0052802D088
:1021600006286DD04CE04FF4D85001F0A5FC814614
:1021700003214FF4D85001F00DFD41F2883000905A
:10218000334B11223349A07805F0AEFA8246494616
:102190004FF4D85001F0FEFC1AF10D0F08BF606A31
:1021A00047D004F089FFE069E169091A0229FBD3ED
:1021B000E76126626770E06A8047277023E0A069C4
:1021C0000425B0F1FF3F1CBFE369B3EB500F1AD9F0
:1021D000087810704878507088789070C878D070FF
:1021E000A06B401CA06305F001F9E76126626770EF
:1021F0000420207007E00425052807D006281FD0FA
:1022000001F0D0FF05462846BDE8F88F67701078CA
:102210000B7898420BD150784B78984207D1907840
:102220008B78984203D1D078C978884202D0A06ACE
:1022300003258047E7612662677084F80080E2E743
:10224000E7612662677084F80090DCE78001002077
:1022500087010020904100087047000000230A68B1
:102260009C46002A08BF70472DE9F84F704EDFF8F2
:10227000BC914FF001080F2706F1040E0A6808FA16
:1022800003F42240A2427DD14D68A5F1805AAAF5FF
:10229000881A4D4577D077DC032D08BF4FF0000C2E
:1022A0001BD00DDC002D6ED0012D08BFD1F80CC065
:1022B00013D0022D04BFD1F80CC00CF1080C0CE0B7
:1022C000112D04BFD1F80CC00CF1040C05D0122D57
:1022D00004BFD1F80CC00CF10C0CB2F5807F34BFF8
:1022E0000546051D4FEA830428BF203CD5F800A011
:1022F00007FA04FB2AEA0B0A0CFA04F44AEA04047B
:102300002C604C6814F0805F64D04A4CA56945F09D
:102310000105A561A46904F00104009423F00304FD
:1023200004F1804505F58035D5F808A04FEA83749F
:102330004FEA147407FA04FB2AEA0B0AA0F1804B57
:10234000BBF5843B18D0A0F1804BBBF5863B08BFA2
:102350004FF0010B10D0A0F1804BBBF5883B08BFBC
:102360004FF0020B08D0A0F1804BBBF58A3B0CBFAD
:102370004FF0030B4FF0040B0BFA04F444EA0A0489
:10238000AC6002E026E03FE02BE04C6814F4801FD4
:10239000346814BF1443944334604C6814F4001F31
:1023A000DEF8004014BF14439443CEF800404C685C
:1023B00014F4003F204C256814BF15439543256055
:1023C0004C6814F4803F1D4C256814BF2A4325EA4D
:1023D000020222600A685B1CDA407FF44FAFBDE85E
:1023E000F88FBAF5881F0FD007DCBAF5803F18BF09
:1023F000BAF5801F7FF471AF06E0BAF5001F18BF71
:10240000BAF5041F7FF469AFD1F808C0BCF1000F22
:1024100008BF4FF0040C3FF460AFBCF1010F4FF068
:10242000080C0CBF0461446157E700000000111064
:10243000080401400010024004040140000401406F
:10244000002A08BF09040161704700000148806844
:10245000704700003400002002488168027811446F
:102460008160704734000020074810B5016841F0D2
:1024700010010160032000F07FF80F2000F006F843
:1024800000F024F8002010BD0020024070B50D4D72
:1024900004464FF47A712878B1FBF0F00A490968D4
:1024A000B1FBF0F000F0C4FE48B9102C07D20022B6
:1024B0002146501E00F02EF800206C6070BD0120F7
:1024C00070BD000034000020400000200F4808B517
:1024D000816941F001018161816901F0010100918F
:1024E000C16941F08051C161C069002200F0805093
:1024F00000900F21901E00F00DF80548416821F072
:10250000E06141F00071416008BD00000010024030
:1025100000000140174B10B41B68C3F30223C3F142
:10252000070CBCF1040F88BF4FF0040C1C1D072CD6
:1025300034BF0023DB1E012404FA0CFCACF1010CB7
:102540000CEA0101994004FA03F35B1E1A4011439F
:1025500000284FEA0111A1BF00F1E02080F800142B
:1025600010BC704700F00F0000F1E02080F8141D4F
:1025700010BC70470CED00E0074900F007000A6846
:102580004FF6FF031A4042EA002040F0FD7040F091
:1025900080600860704700000CED00E0002804BF78
:1025A000012070472DE9F047DFF8788105460E4697
:1025B000D8F8000000F00700B0420CD2D8F80000B4
:1025C00020F007003043C8F80000D8F8000000F001
:1025D0000700B04263D12868534C10F0020F14D0AA
:1025E00010F0040F03D0606840F4E0606060287869
:1025F00010F0080F03D0606840F4605060606068BD
:10260000A96820F0F00008436060287810F0010FFE
:1026100032D0686801281FD02168022821D011F02B
:10262000020F3CD0616821F0030108436060FFF7AE
:102630000DFF07466068696800F00C00B0EB810F81
:1026400018BF41F2883917D0FFF700FFC01B48457B
:102650000BD90320BDE8F087216811F4003FE1D1D8
:102660001DE011F0007FDDD119E06068696800F0BD
:102670000C00B0EB810FE7D1D8F8000000F00700A4
:10268000B0420FD9D8F8000020F007003043C8F856
:102690000000D8F8000000F00700B04202D001208E
:1026A000BDE8F087287810F0040F05D06068E9686D
:1026B00020F4E06008436060287810F0080F06D02E
:1026C0006068296920F4605040EAC1006060616878
:1026D000164801F00C02042A14D0082A12D114481A
:1026E000C1F3834211F4803F805C04BF1149484329
:1026F00008D06168104AC1F34041515C0B4A504315
:10270000B0FBF1F061680D4AC1F30311515CC840A0
:102710000B4908600B480068FFF7B8FE0020BDE8D1
:10272000F0870000002002400010024000127A00F2
:102730001599000800093D00139900082599000823
:10274000400000203800002004480549006849681E
:10275000044AC1F30221515CC84070474000002088
:10276000001002403599000804480549006849688E
:10277000044AC1F3C221515CC840704740000020A8
:102780000010024035990008002804BF012070475E
:102790002DE9F84F04460078E84D10F0010F59D0AC
:1027A000686800F00C00042808D0686800F00C008D
:1027B00008280CD1686810F4803F08D0286810F40D
:1027C000003F47D06068002800F0B28142E06068B6
:1027D000B0F5803F04BF286840F480300AD010B1C3
:1027E000B0F5A02F11D0286820F480302860286828
:1027F00020F4802028606068D0B1FFF727FE0646ED
:10280000286810F4003F08D024E0286840F48020B5
:102810002860286840F48030ECE7FFF717FE801B43
:10282000642800F23681286810F4003FF5D011E0EA
:10283000FFF70CFE0646286810F4003F0AD000BFE0
:10284000FFF704FE801B642800F22381286810F43F
:10285000003FF5D12078BA4E10F0020F4FF0010B77
:102860004FF0000845D0686810F00C0F14D068686D
:1028700000F00C00082804BF686810F4803F0BD0FB
:10288000206918B3C6F800B0FFF7E0FD07462868D6
:1028900010F0020F09D011E0286810F0020F1CBFE1
:1028A000206901280AD000F043B9FFF7CFFDC01B13
:1028B00002287DD8286810F0020FF6D028686169D8
:1028C00020F0F80040EAC100286012E0C6F800805D
:1028D000FFF7BCFD0746286810F0020F09D000BFC3
:1028E000FFF7B4FDC01B022862D8286810F0020F61
:1028F000F6D1207810F0080F35D09248A169F9B1CF
:10290000C0F800B0FFF7A2FD0746686A10F0020F9A
:1029100009D100BFFFF79AFDC01B022848D8686A9A
:1029200010F0020FF6D0884801684FF4FA50B1FB5E
:10293000F0F0009000BF0098411E0091FAD212E022
:10294000C0F80080FFF782FD0746686A10F0020FAA
:1029500009D000BFFFF77AFDC01B022828D8686A9B
:1029600010F0020FF6D1207810F0040F79D0E8694A
:102970004FF0000A10F0805F09D1E86940F0805004
:10298000E861E8694FF0010A00F080500090DFF83C
:10299000BC91D9F8000010F4807F19D1D9F800005B
:1029A00040F48070C9F80000FFF750FD074600E0D2
:1029B0006FE0D9F8000010F4807F09D1FFF746FDE1
:1029C000C01B642865D8D9F8000010F4807FF5D0CA
:1029D000E068012804BF286A40F0010009D008B16E
:1029E000052813D0286A20F001002862286A20F008
:1029F00004002862E06841F28837D0B1FFF726FD75
:102A00008146286A10F0020F08D023E0286A40F0BF
:102A100004002862286A40F00100EAE7FFF716FD8B
:102A2000A0EB0900B84234D8286A10F0020FF5D0A4
:102A300010E0FFF70BFD8146286A10F0020F09D065
:102A4000FFF704FDA0EB0900B84222D8286A10F075
:102A5000020FF5D1BAF1000F03D0E86920F08050E1
:102A6000E861E069F0B3696801F00C01082950D011
:102A70000228C6F860800FD0FFF7E8FC04462868FB
:102A800010F0007F57D000BFFFF7E0FC001B0228CA
:102A90003AD90320BDE8F88FFFF7D8FC074628682D
:102AA00010F0007F09D000BFFFF7D0FCC01B022848
:102AB000EFD8286810F0007FF6D1206AB0F5803F8B
:102AC00005D16868A16820F4003008436860D4E943
:102AD00008010843696821F4741108436860C6F866
:102AE00060B000E027E0FFF7B1FC0446286810F072
:102AF000007F20D1FFF7AAFC001B0228C9D8286854
:102B000010F0007FF6D016E0286810F0007FBBD1EF
:102B100011E0012808BFBDE8F88F6868226A00F458
:102B20008031914204D1616A00F47010884202D071
:102B30000120BDE8F88F0020BDE8F88F00100240AA
:102B400000004242800442424000002000700040E9
:102B5000002804BF0120704770B50446406A002574
:102B600000281CBF2561656104D0A56294F851005E
:102B700058B905E06068B0F5827F18BFE561F4E7F9
:102B800084F85050204600F03FF8022084F85100AD
:102B90002068016821F040010160A088218900F4CB
:102BA000827001F404410843A18901F400610843E3
:102BB000217C01F002010843217D01F0010108435D
:102BC000218B01F400710843217F01F03801084393
:102BD00094F8201001F080010843218D01F4005188
:102BE000084321680860A069042101EA10402168B7
:102BF00048602068C16921F40061C16165650120F8
:102C000084F85100002070BD30B585B000240094D8
:102C10000194029403940068A0F18041B1F59831C9
:102C20001CBF05B030BD1348816941F480518161FA
:102C3000816901F480510491816941F0040181614D
:102C400080690D4D00F004000490A0200090022047
:102C500001900320039069462846FFF7FFFA4020C1
:102C6000CDE90004694628460294FFF7F7FA05B05B
:102C700030BD000000100240000801402DE9F84F6F
:102C8000044690F851001D4691468B464FF00008CF
:102C90004746012818BF4FF0020840F0C480606822
:102CA000B0F5827F04BFA068002828D094F85000B7
:102CB000012804BF0220BDE8F88F4FF0010A84F814
:102CC00050A0FFF7C3FB0646BBF1000F18BFB9F1D8
:102CD000000F77D04FF0040084F851006765C4F806
:102CE00038B0A4F83C90A4F83E902763A786E78606
:102CF00027646764A068B0F5004F0BD014E004208F
:102D000084F85100009313460A46204600F076F9F5
:102D1000BDE8F88F2068016821F04001016020685B
:102D2000016821F4804101602068016811F0400FC2
:102D300003D1016841F040010160E0680028E08FA4
:102D40000FD058B32068816811F0010F27D0C068F8
:102D5000A16B0880A06B801CA063E08F401EE08701
:102D600027E0D8B12068816811F0010F09D0007BFD
:102D7000A16B0870A06B401CA063E08F401EE08731
:102D800009E0FFF763FB801BA84203D3B5F1FF3FC7
:102D900019D100E0BDB1E08F0028E3D10CE0FFF7CE
:102DA00055FB801BA84203D3B5F1FF3F0BD100E0D8
:102DB0004DB1E08F0028C5D160682B46B0F5827F09
:102DC0001AD105E02DE04FF0030884F851A02AE065
:102DD000A068B0F5004F18BFB0F5806F0CD1206827
:102DE000016821F0400101606068B0F5827F04BF96
:102DF000A068B0F5806F1BD04FF000024FF080014B
:102E00002046009600F090FC28B1606D40F0200153
:102E1000616520206065606D002808BF84F851A0BE
:102E200001D04FF0010884F850704046BDE8F88F9B
:102E3000002201212046009600F076FC0028E4D113
:102E4000E9E72DE9F84F044690F8500000271D46A9
:102E500092468B46012804BF0220BDE8F88F4FF050
:102E6000010984F85090FFF7F1FA064694F85100F2
:102E70004FF00008012818BF022740F0BA80BBF1CC
:102E8000000F18BFBAF1000F7DD04FF0030084F897
:102E90005100C4F85480C4F830B0A4F834A0A4F8A9
:102EA00036A0C4F83880A4F83C80A4F83E80C4F86A
:102EB0004480C4F84080A068B0F5004F09D1206874
:102EC000016821F0400101602068016841F48041FF
:102ED00001602068016811F0400F03D1016841F0E2
:102EE00040010160E068B0F5006F606805D000281F
:102EF00018BFBAF1010F32D03BE0002818BFBAF179
:102F0000010F0BD1206B21680088C860206B00F195
:102F100002002063E08EA0F10100E086E08E002830
:102F200047D02068816811F0020F09D0216B098811
:102F3000C160206B801C2063E08E401EE0860AE0AA
:102F4000FFF784FA801BA84203D3B5F1FF3F41D1BC
:102F500001E0002D3ED0E08E0028E2D129E0206B78
:102F6000216800780873206B401C2063E08E401EAF
:102F7000E086E08EE8B12068816811F0020F0BD086
:102F8000216B097800E033E00173206B401C206363
:102F9000E08E401EE08609E0FFF758FA801BA84249
:102FA00003D3B5F1FF3F15D100E09DB1E08E0028BD
:102FB000E1D12B46002280212046009600F0B4FB90
:102FC00028B1606D40F02001616520206065A06837
:102FD00040B903E0032784F851900AE02068C168F3
:102FE00080680090606D002808BF84F8519000D080
:102FF000012784F850803846BDE8F88F2DE9FF4F4F
:1030000081B0044690F8500000270E9D1E4693465E
:103010004FF00109012802BF022005B0BDE8F08F82
:103020004FF0010A84F850A0FFF710FA804694F898
:1030300051006168012808D0B1F5827F03BFA16803
:1030400000290428022740F0EB80029800281CBFCA
:10305000BBF1000F002E00F0E28094F8510004282C
:103060001CBF052084F8510000216165C4F838B008
:10307000E687A68702982063E686A68621646164B7
:103080002068016811F0400F03D1016841F0400150
:103090000160E068B0F5006F606804D0002818BFD8
:1030A000012E61D0A3E0002818BF012E42D1206B71
:1030B00021680088C860206B00F102002063E08E68
:1030C000A0F10100E08635E02068816811F0020F70
:1030D0001CBFE18E00290FD0B9F1010F0CD1216B7B
:1030E0000988C160206B00F102002063E08EA0F12E
:1030F0000100E0864FF000092068816811F0010F9F
:103100001CBFE18F00290CD0C068A16B0880A06BA8
:1031100000F10200A063E08FA0F10100E0874FF012
:103120000109FFF793F9A0EB0800A84202D3B5F11B
:10313000FF3F63D1E08E002804BFE08F0028C3D199
:103140002B464FF000024FF080012046CDF8008062
:1031500000F0EAFA002856D0606D40F02001616569
:103160000127202060655BE0206B216800780873F0
:10317000206B401C2063E08E401EE08637E0206814
:10318000816811F0020F1CBFE18E00290FD0B9F148
:10319000010F0CD1216B09780173206B00F1010044
:1031A0002063E08EA0F10100E0864FF00009206866
:1031B000816811F0010F1CBFE18F00290CD0C0689D
:1031C000A16B0870A06B00F10100A063E08FA0F17B
:1031D0000100E0874FF00109FFF738F9A0EB080084
:1031E000A84203D3B5F1FF3F01D007E035B1E08E2F
:1031F000002804BFE08F0028C1D1A1E74FF00307EA
:1032000084F851A00CE0A06818B92068C1688068F3
:103210000090606D002808BF84F851A000D00127FD
:10322000002084F8500005B03846BDE8F08F00005B
:10323000411EB1F1807F24BF012070474FF0E02094
:103240004161054AF02182F8141D002181610721A6
:1032500001610020704700000FE000E090F83C2082
:10326000012A04BF0220704730B4012380F83C30AB
:10327000022280F83D2002685468D2F808C00D6828
:1032800024F070042C4354600268A2F18044B4F529
:10329000963418BFB2F1804F09D0A2F18044B4F542
:1032A00080641CBFA2F18044B4F5006405D1496874
:1032B0002CF0800C41EA0C01916080F83D30002137
:1032C00080F83C1030BC08467047002804BF01203D
:1032D000704710B5044690F83D0028B9002084F8E6
:1032E0003C00204600F01EF8022084F83D00211D1D
:1032F000206800F03DFB012084F8460084F83E0081
:1033000084F83F0084F8400084F8410084F84200CB
:1033100084F8430084F8440084F8450084F83D00B4
:10332000002010BD006881B0A0F18041B1F50061BE
:103330001CBF01B070470548C16941F00401C1617B
:10334000C06900F00400009001B070470010024016
:1033500090F83C200023012A0DBF02204FF0010C01
:1033600080F83CC0704770B4022280F83D200268AB
:10337000946824F0770424F47F4494600A68502A07
:1033800043D00CDC202A75D004DC002A18BF102A98
:103390000FD18BE0302A6DD0402A6DD009E0602A31
:1033A0004DD0702A0ED0B2F5805F03D0B2F5005F29
:1033B00019D0012380F83DC0002180F83C1070BC7A
:1033C00018467047D1E901450268C968966844EA21
:1033D000012126F47F4629433143916001688A68C0
:1033E00042F077020FE0D1E901450268C9689668AA
:1033F00044EA012126F47F46294331439160016864
:103400008A6842F480428A60D4E702684C68C968DE
:10341000156A166A26F001061662966925F00A05F5
:1034200026F0F00646EA01112C439161146201680E
:103430008A6822F0700242F057028A60BAE7026896
:103440004C68C968156A166A26F0100616629669F5
:1034500025F0A00526F4704646EA013145EA041439
:103460009161146201688A6822F0700242F067027A
:103470008A609FE71AE0FFE702684C68C968156A2E
:10348000166A26F001061662966925F00A0526F0EE
:10349000F00646EA01112C439161146201688A68C2
:1034A00022F0700242F047028A6083E701688C686C
:1034B00024F07004224342F007028A607AE7002871
:1034C00004BF0120704770B5044690F84100002504
:1034D00020B984F84050204600F024F8242084F8D5
:1034E00041002068C16821F40051C160204600F00D
:1034F0007BFA2068016921F49041016120684169EB
:1035000021F02A0141612068C16841F40051C16085
:103510006564202084F8410084F84200656300203F
:1035200070BD000000B585B00021009101910291AD
:1035300003910068A0F18041B1F588411CBF05B03E
:1035400000BD0E48C16941F40031C161C16901F497
:1035500000310491816941F004018161806969460B
:1035600000F0040004900C200090022001900390D1
:103570000348FEF773FE05B000BD000000100240D6
:10358000000801402DE9F05F044690F841001D4617
:103590001646884620281CBF0220BDE8F09FB8F1DF
:1035A000000F12BF002E0120BDE8F09F4FF0000B6E
:1035B000C4F844B04FF0210084F84100FEF746FF04
:1035C000A6848146E684A068B0F5805F07BF2069C5
:1035D000002846464FF0000808BF0026E08C4FF058
:1035E000200AB0B320684FF08007006837EA000077
:1035F00024D000BFB5F1FF3F1BD02DB1FEF726FF51
:10360000A0EB0901A94214D920680C3050E8001F32
:1036100021F4D07140E80012002AF5D1206814305E
:1036200050E8001F21F0010140E80012002AF5D106
:1036300035E02068006837EA0000DBD1C6B32068B7
:1036400016F8011B4160E08C401EE084E08C0028ED
:10365000C8D120684026006836EA000035D000BF97
:10366000B5F1FF3F2CD02DB1FEF7F0FEA0EB090025
:10367000A84225D920680C3050E8001F21F4D071F1
:1036800040E80012002AF5D1206800F1140151E849
:10369000000F20F0010041E80002002AF4D184F874
:1036A00041A084F842A084F840B00320BDE8F09F18
:1036B000FFE738F8020B2168C0F308004860C2E752
:1036C0002068006836EA0000CAD184F841A00020D2
:1036D000BDE8F09FFEE7000010B505A0FCF700FE76
:1036E00001F066FABDE8104007A0FCF7F9BD000044
:1036F000436F72654D61726B20546573742042652F
:1037000067696E73210D0A00436F72654D61726BBC
:1037100020546573742046696E6973686573210D62
:103720000A000000FEE7FEE72DE9F84398460E4642
:103730000446089DFEF78AFE401BA8EB0005FEF735
:1037400085FE074627480068C0F3CB3068430090E9
:103750002068806836EA000014D100BFB8F1FF3F4E
:103760000BD0FEF773FEC01BA8420ED26DB10098BD
:10377000002808BF0025401E00902068806836EAB7
:103780000000EBD00020BDE8F8832068416821F0FC
:10379000E00141606068B0F5827F0BD1A068B0F5B0
:1037A000004F18BFB0F5806F04D12068016821F088
:1037B00040010160A06AB0F5005F09D1206801688E
:1037C00021F4005101602068016841F4005101605A
:1037D000012084F85100002084F850000320BDE847
:1037E000F88300004000002005484FF0FF310069D9
:1037F00002F0FAFBFFF770FF012002F09FFBFBE7EE
:103800000000002030233348334C3F2203700178FE
:1038100039291ABF491C41704370401C521EF6D111
:103820004FF6FF754CF2503622882023501C208022
:103830000121022004F026F801462088A84208BF92
:10384000268000290ADA25A0FCF74AFD022000F0B4
:10385000E1FC4FF4FA7002F071FBE5E724A0FCF7FD
:103860003FFD00BF4FF4527000F026F91328F9D144
:1038700040F6B8322349022000F034FD070010D58D
:103880004FF4527000F018F9024639461EA0FCF7BA
:1038900027FD022000F0BEFC4FF4FA7002F04EFB50
:1038A000C2E722A0FCF71CFD206902F037FC402291
:1038B0000849022003F068FB010006D520A0FCF7B0
:1038C0000FFD022000F0A6FCAEE7642002F036FBFC
:1038D000EDE70000C402002000000020736F636B5E
:1038E0006574206661696C65647B25647D2E0A00C1
:1038F000736F636B657420737563636573732E2ECA
:103900002E0A000004000020636F6E6E6563742051
:103910006661696C65647B25647D2E536E5F5352CE
:1039200028293D7B25647D0A00000000636F6E6ED0
:1039300065637420737563636573732E2E2E0A009E
:1039400073656E64206661696C65647B25647D2E99
:103950000A00000010B5FEF77FFD05F06DFA0128A2
:1039600008BF10BDBDE8104004F0CCBC704700009B
:1039700030B40268194BDFF868C01A4C984218BF7F
:10398000B0F1804F03D0604518BFA04204D14D680C
:1039900022F0700245EA0202984218BFB0F1804F4F
:1039A00003D0604518BFA04205D1D1F80CC022F465
:1039B00040724CEA0202D1F814C022F0800242EABE
:1039C0000C0202608A68C2620A688262984204BF7E
:1039D000096901630121416130BC7047002C01403D
:1039E000000400400008004070B50446006801690A
:1039F000E26821F44051114301612169A068084344
:103A0000616901432068C26822F4037222F4A05263
:103A10001143C16020684169A26921F440711143DA
:103A200041612068A0F18041B1F59C313CD0FEF7A6
:103A30008BFE00BF00EBC00101EB001260681C4967
:103A40008000B2FBF0F3A1FB0353B2FBF0FC5B0977
:103A50006FF018056B430CEB830C322303EB0C1C4B
:103A6000A1FB0C5C4FEA5C1C0CF0F005B2FBF0FC17
:103A7000A1FB0C6C4FEA5C1C05EB0C1CB2FBF0F5D7
:103A8000B2FBF0F0A1FB002040096FF01802504398
:103A900005EB800003EB0010A1FB00102168C0F3D0
:103AA00043106044886070BDFEF75EFEC2E7000010
:103AB0001F85EB51FEE70000F8B5164C0546E0689F
:103AC000804760698047616AC5F30740C5F30726F0
:103AD00000291CBFA26A002A12D08DF800008DF8C0
:103AE00001608DF802504FF0030168469047E0698D
:103AF0008047A16905468847216988472846F8BD5F
:103B0000216A8847216A30468847216AE8B2884797
:103B1000EDE70000540100202DE9F8431C4F044656
:103B20001546F8680E46804778698047796AC4F37D
:103B30000740C4F3072800291CBFBA6A002A13D023
:103B40008DF800008DF801808DF802404FF00301E0
:103B5000684690477A6A294630469047B869804758
:103B600038698047BDE8F883396A8847396A404632
:103B70008847396AE0B288470024002DEED9F869F9
:103B800080473055601C84B2A542F8D8E6E70000B3
:103B900054010020F8B5164C05460E46E0688047F3
:103BA00060698047A26A45F004058AB1280C8DF847
:103BB0000000280A8DF801008DF802508DF803608E
:103BC000042168469047A069804720698047F8BD76
:103BD000216AC5F307408847216AC5F30720884753
:103BE000216AE8B28847216A30468847EBE700003F
:103BF00054010020F8B51B4D04461646E8680F46F0
:103C0000804768698047AA6A44F004049AB1200C8E
:103C10008DF80000200A8DF801008DF80240032184
:103C200068469047AA6A314638469047A869804757
:103C300028698047F8BD296AC4F307408847296A84
:103C4000C4F307208847296AE0B288470024002E81
:103C5000ECD9296A385D8847601C84B2A642F8D83E
:103C6000E4E700005401002000B583B0184919486A
:103C700003F032F91849194803F040F91849194876
:103C800003F04EF91849194803F064F94FF46450F1
:103C9000FFF712FF0146042805D015A0FCF720FB12
:103CA00003B0002000BD1CA0FCF71AFB01A804F023
:103CB000B0FA9DF8070000909DF806309DF80520A9
:103CC0009DF804101948FCF70BFB03B0012000BD60
:103CD000518100084D810008D53E0008153F0008BD
:103CE000393F0008F93E0008253F0008E53E00087E
:103CF00067657456455253494F4E5220726574752C
:103D0000726E732077726F6E672076657273696F5B
:103D10006E21282575290A00676574564552534956
:103D20004F4E52282575290A00000000889A000885
:103D300030B591B0062246494FF41060FFF75AFFA4
:103D400044490020FEF77AF94449434A084603F003
:103D5000A3F8434C00204FF6FF75608003E0401C41
:103D60006080FEF7B9F9207810B96088A842F6D3D0
:103D70003CA0FCF7B5FA2078354C50B1A01D01F0FD
:103D800011FD04F10E0001F001FD04F10A0001F043
:103D900015FD2F4804F00CFA09A804F0DDF99DF890
:103DA0002E0005AD9DF831309DF830209DF82F1084
:103DB00085E80F009DF8320001AD9DF835309DF883
:103DC00034209DF8331085E80F009DF82D000090F9
:103DD0009DF82C309DF82B209DF82A102B48FCF7DD
:103DE0007FFA9DF82400217888420ED19DF82500A5
:103DF0006178884209D19DF82600A178884204D1D3
:103E00009DF82700E178884205D021A0FCF768FAE8
:103E100011B0002030BD2549042001F0C3FB0FA9DB
:103E2000052001F0BFFB21489DF83C10027891422B
:103E300007D1BDF83E104088814202BF012011B079
:103E400030BD1BA0FCF74CFA11B0002030BD0000C3
:103E50001C0000200403002009410008D94000088C
:103E6000140000206765742069702066726F6D20F1
:103E700064686370207365727665722066696E6926
:103E8000736865642E2E2E0A000000003C9A00081C
:103E900077697A636869705F6765746E6574696E67
:103EA000666F206661696C65642E0A001800002048
:103EB00063746C6E6574776F726B28434E5F534505
:103EC000545F54494D454F555429206661696C65CE
:103ED000642E0A00012240210148FEF7B1BA000019
:103EE000000C01400A4601464FF0FF330148FEF73F
:103EF000C5BE0000DC01002008B54FF0FF330122F1
:103F000069460348FEF7BAFE9DF8000008BD0000B0
:103F1000DC010020002240210148FEF791BA000098
:103F2000000C01400A4601464FF0FF330148FEF7FE
:103F300088BF0000DC01002001B54FF0FF330122F3
:103F400069460248FEF77DFF08BD0000DC01002045
:103F500000210160416001817047490050EAC120A1
:103F600018BF04204A0D18BF40F0010040F2FF7254
:103F7000B2EB515F08BF40F00200012808BF0520E6
:103F8000704730380A2801D201207047002070475E
:103F9000002070470020704700207047002804BFB1
:103FA0004FF0FF30704710B5044600783A281AD118
:103FB0000EA12046FCF768FB002804BF48F2010070
:103FC00010BD0CA12046FCF75FFB002804BF48F29F
:103FD000020010BD09A12046FCF756FB002804BFD3
:103FE00048F2030010BD4FF0FF3010BD3A53544467
:103FF000494E00003A5354444F5554003A535444E8
:10400000455252000020704738B50D466FF400410C
:104010001446401803D0012804D0022810D04FF0D5
:10402000FF3038BD64B100BF15F8010B00904FF6AA
:10403000FF73012269460348FFF7A4FA641EF3D117
:10404000002038BD7C020020F0B5B0F900600746C2
:10405000C6F3C01083B00C4600281EBF06F07F00D8
:1040600003B0F0BD16F00700C6F3C30141EA011129
:1040700012D0012818BF354622D0218FA8B201F0F6
:104080005FFA208705F07F0006F47F41014341F08D
:104090008001398003B0F0BD2229B8BF2221208FD2
:1040A000CDE90010D4E90510B4F90230B4F90020CC
:1040B00000F07DFA05B2E08F002808BFE587DCE755
:1040C000228F04F1280000F061FA05B2A08F0028C9
:1040D00008BFA587D1E7000010B503A0FCF700F9E1
:1040E00008490120087010BD495020416464726580
:1040F00073732069732061737369676E65642E0A38
:10410000000000001400002010B503A0FCF7E8F840
:1041100008490020087010BD495020416464726550
:10412000737320697320636F6E666C696374656472
:104130002E0A000014000020F8B54FF4D850FFF705
:10414000BBFC064603214FF4D850FFF723FD0F4B6D
:1041500041F28830DC1F009011220DA1A07803F0FD
:10416000C3FA054631464FF4D850FFF713FD15F159
:104170000D0F04BF0120F8BD02F09EFFE069E16968
:10418000091A0229FBD30020F8BD00008701002096
:10419000434845434B5F49505F434F4E464C49436C
:1041A0005400000070B5194C0126204694F9011006
:1041B00090F900000025022915DAE269216A91428E
:1041C00022D2012805D0022814BF042803F00EF9DA
:1041D00001E002F0F1FFE561E0690A3020626078F9
:1041E000401C607010E0012804BF2570002607D035
:1041F000022818BF042803D102F0DEFF012020703E
:10420000E5610A2020626570304670BD80010020A3
:1042100000207047082884BF4FF0FF30704770B50A
:1042200005464FF4847000EB451004461021FFF75B
:10423000B1FC2046FFF740FC0028FAD14FF4027091
:1042400000EB45101F21FFF7A5FC012000FA05F146
:10425000104842888A434280828822EA0101818094
:104260000D49002021F815000C4948554FF44270C3
:1042700000EB45152846FFF71FFC48B120461021EA
:10428000FFF788FC2046FFF717FC0028FAD1F1E77A
:10429000012070BD3C010020D82B002042010020ED
:1042A00070B50E4615461146FFF7CEFE0446294668
:1042B0003046FFF7C9FE201A70BD6AB9028802F4C1
:1042C0007F43C2F307221A4302800A8802F47F4325
:1042D000C2F307221A430A80B0F90200B1F90210B2
:1042E000401A7047082884BF4FF0FF3070472DE90F
:1042F000F0410446400190460E4601270830FFF782
:10430000DBFB00F00F0001281CBF6FF00400BDE8CC
:10431000F0814FF4427000EB44100546FFF7CCFBF0
:1043200013281CBF6FF00200BDE8F081307871786F
:1043300001EB0020B17801EB0020F17801EB0020C7
:10434000B0F1FF3F12BF00286FF00B00BDE8F08115
:10435000B8F1000F04BF6FF00A00BDE8F08140F62D
:10436000084000EB441004223146FFF743FC41F2C1
:1043700008004FEA182100EB4410FFF70BFC41F254
:10438000081008F0FF0100EB4410FFF703FC4FF4A6
:10439000847000EB441006460421FFF7FBFB304617
:1043A000FFF78AFB0028FAD1154907FA04F049887B
:1043B000084213BF00204FF4027000EB4414BDE824
:1043C000F0812846FFF778FB172815D02046FFF725
:1043D00073FB10F0080F07D020460821FFF7DAFB27
:1043E0006FF00C00BDE8F0812846FFF765FB002860
:1043F000E7D1001FBDE8F0810120BDE8F081000099
:104400003C0100202DE9F05F0023B0F904A08946AB
:10441000456A024698461F4669F31F469C46BAF114
:10442000000F47DD0CF0FF0060F30F062C4631143F
:1044300008D484B16068B0F90200884218BF2468CB
:10444000F7D108E03CB1D4F804B09BF800B0834544
:1044500018BF2468F6D100203DB100BFD5F800B0E8
:10446000286028465FEA0B05F8D10546002C49D0A4
:1044700008F101001FFA80F86068B0F9000010F040
:10448000010F03D0C0F34020184483B2206830B13C
:10449000D0F800B0C4F800B02C680460286000298F
:1044A000A4BF481C60F31F460CF101000FFA80FC0A
:1044B000D445B7DBC7EB8800184487B2B9F1000FC9
:1044C00004DD3049284600F04BFA05462868D0E95B
:1044D0000081D8F804204260C8F804100168096817
:1044E00001600020C8F800002846311448BF31B2EE
:1044F00012D4D0B14268B2F902208A4218BF0068D3
:10450000F7D110E0781C87B2286840680088C0F3B3
:104510000020184483B2C2E738B1426812788A4258
:1045200018BF0068F8D1044601E02C684CB16868F7
:104530003946B0F9000000F0DBFF24680746002C84
:10454000F5D12868D8F804104268C8F80420416002
:104550000168C8F80010C0F8008000220A49284607
:1045600000F0FEF9046805464CB168683946B0F9B8
:10457000000000F0BDFF24680746002CF5D1384646
:10458000BDE8F09FA1420008BB42000838B51546BF
:10459000D0E90123D0F800C0C468009121466046EC
:1045A00001F064FB2946BDE8384000F0A1BF2DE9C9
:1045B000F04F95B082460020DDE91E690A900B900D
:1045C0000C900F9010900D900E9011900090019013
:1045D0000C4602900390049005900690CDE90704E4
:1045E0002078984693466F4660B10AA908A800F063
:1045F0000AFA57F82010491C47F82010089800784C
:104600000028F2D104EB0A00001B3044A0F1010A9B
:104610009AFBF6F0254608940028C8BF0BF0FF026D
:1046200007DD29782C291CBF514029703544401ED4
:10463000F7D10894207860B10AA908A800F0E3F93E
:1046400057F82010491C47F82010089800780028D7
:10465000F2D19AFBF6F008940028C8BF08F0FF02D8
:1046600007DD21782C291CBF514021703444401EA5
:10467000F7D100240AAD57F82400494600F085FF21
:1046800055F824200146104600F07FFF641C814647
:10469000082CF0D315B0BDE8F08F00002DE9F04FE5
:1046A00000244FF0010C002A08BF0122002805D980
:1046B000641C04FB04F5ED00A842F9D8491E601EF5
:1046C00021F0030101F1040B00FB00FE0BEB4E0A8D
:1046D000002818BF002128D900E018B301FB00F41E
:1046E0000AEB44060BEB44054FF000044FEA0007C9
:1046F0000CEB040909FB02F24FEAE27802EB1848DE
:104700006FF30F08A2EB080209EB020826F8028BF0
:10471000C84408F0FF0825F8028B04F101047F1E4D
:10472000E6D18444491C8142D7D30AEB4E01C3E948
:1047300001BA491E21F00301091DD9601860BDE8C6
:10474000F08F00002DE9F84F4FF0000CA0F10108A8
:10475000654666466746B8F1010F4DD9DFF8E8A017
:104760000AF1100B0AF1200E1DE0E5B102EB0C007E
:10477000731E0090401E15F0010F03D013F801CFF7
:1047800000F801CF5FEA550C08D05C78447013F84C
:10479000024F00F8024FBCF1010CF6D1009B2C2017
:1047A00009F1010C5855481C01B201F00700082816
:1047B0001CD2DFE800F00404040A0A0F0F15C1F34D
:1047C000C10004255AF8206010E0C1F3C1005BF875
:1047D000206003E0C1F3C1005EF82060082505E019
:1047E0001A48C1F3C103082550F823600CEB0509F2
:1047F00009F101004045B8D308F10100844538BFF4
:10480000B0F1004F14D202EB0C01A0EB0C00491EDA
:1048100010F0010F18BF01F8017F400808BFBDE884
:10482000F88F4F7001F8027F401EFAD1BDE8F88F73
:10483000604598BFBDE8F88F02F80C700CF1010CD0
:104840008445F9D3BDE8F88FDC0000200C0100207E
:104850002DE9F00F1423B0FBF3F0871E01EBC70422
:1048600000234C600B606380D1F804C048F28003E1
:104870000846ACF8003001F1080C231D103104EBA0
:10488000870547F6FF794FF0FF36A1423CBF03F1A1
:104890000408A8450DD26146D0F80080C1F8008018
:1048A00001604B6019460CF1080C0E801B1DA1F82D
:1048B00002900021002F22D982EA010606F00F089B
:1048C0000E4668F3DF0646EA062A0CF10806A64201
:1048D0003CBF03F10408A8450ED2E0460668C8F8BC
:1048E0000060C0F80080C8F80430A3F800A0A3F866
:1048F00002900CF1080C1B1D491CB942DCD3036863
:104900000121D3F800C0BCF1000F1FD0DFF848C070
:10491000ACFB074C4FEA9C048C4205D9D3F804C089
:10492000ACF80210491C0BE081EA020C491C01F0B2
:1049300007054CEA052C5D68CCF30D0CA5F802C008
:104940001B68D3F800C0BCF1000FE5D1BDE8F00F43
:104950000022024900F004B8CDCCCCCCBB42000808
:104960002DE9F74F82464FF0010900BF5FEA0A05C3
:104970004FF0000A5746D3463FD000262C4630461B
:104980000BF1010BB9F1000FD8BFC84624DD246834
:10499000761C002C1CBF401C4845F8DBC846002E86
:1049A0001ADD7EB1B8F1000F18BF002C06D0DDE98A
:1049B0000132616868689847002803DC28462D6842
:1049C000761E03E020462468A8F10108002F14BFDA
:1049D000386082460746E2E7B8F1000F02DD002C9E
:1049E000DFD101E02500C8D100203860BBF1010F04
:1049F000C8BF4FEA4909B9DC01E00020006003B0FC
:104A00005046BDE8F08F0368844600201A78002ADB
:104A100000F0CA802C2A5BD0A2F13000092833D8DC
:104A20000A680420521C0A6013F8012F002A76D06D
:104A30002C2A7BD05EE0A2F13000092870D88A6968
:104A40000720521C8A6113F8012F002A67D02C2AF4
:104A500067D16BE02B2A18BF2D2A77D0CA684FF098
:104A6000010002F10102CA6060E0A2F130000928F1
:104A70002FD88A680420521C8A6013F8012F002A5C
:104A80004DD02C2A52D035E02B2A18BF2D2A0AD01F
:104A90002E2A13D04A680120521C4A600A68521C10
:104AA0005B1C0A6080E00A680220521C0A6013F84E
:104AB000012F002A78D02C2A38D0D6E70A680520A2
:104AC000521C0A6013F8012F002A6DD02C2A2FD116
:104AD0002CE02E2A04D08A680120521C8A6025E02E
:104AE0008A680520521C8A6013F8012FBAB12C2A5B
:104AF0001ED11BE02E2A08D0303A092A12D813F80A
:104B0000012F62B12C2AF5D110E00A690520521C50
:104B10000A6113F8012F12B12C2A09D106E042E0F4
:104B20002EE032E00A690120521C0A615B1C3BE066
:104B3000452A18BF652A0AD0A2F13002092A10D8E6
:104B400013F8012F7AB32C2AF2D1EFE70EE04A696D
:104B50000320521C4A6113F8012F22B32C2AE5D0FE
:104B600078E74A690120521C4A61DFE7CA680620DB
:104B7000521CCA6013F8012FAAB12C2AD6D05AE7CA
:104B80008A690120521C8A61D0E7303A092A05D887
:104B900013F8012F3AB12C2AF7D1C7E74A68012050
:104BA000521C4A60C2E7FFE7CCF8003070470000B3
:104BB0002DE9F04FADF6440D4FF0000A574654462C
:104BC0004FF0FF36D0460DF63C020DF6340105AD30
:104BD0000DF15600CDF834A801F051FC012000F091
:104BE00045FEADF81400022000F040FEADF81600BE
:104BF000032000F03BFEADF81800042000F036FE64
:104C00000C90052000F032FE0D90002804BF072014
:104C10000D90BDF814006621002801BFBDF81600F4
:104C20000028BDF81800002805D1ADF814A0ADF893
:104C300016A0ADF81810BDF81400012801BFBDF88A
:104C400016000028BDF81800002807D143F21540CF
:104C5000ADF81400ADF81600ADF8181016A80790BE
:104C60004FF4FA600B90BDF81400ADF81400BDF8D5
:104C70001600ADF81600BDF81800ADF818000D9834
:104C8000ADF854A010F0010F4FF0010B18BF012434
:104C90000D9810F0020F18BF641C0D9810F0040F4F
:104CA00018BF641C0B98B0FBF4F00B900D9810F03B
:104CB000010F06D00B99079801FB07004FF0010781
:104CC00008900D9810F0020F06D00B99079801FB81
:104CD000070007F1010709900D9810F0040F04D0A8
:104CE0000B99079801FB07000A904FF0000700BFDF
:104CF00007EB071905EB890494F8200010F0010F69
:104D000006D035F92920E1680B98FFF7A1FD606214
:104D100094F8200010F0020F0AD035F929006188BC
:104D200004F1280340EA014221690B98FFF7B6FC21
:104D300094F8200010F0040F05D035F929106269AD
:104D40000B98FFF7FFFC781C07043F0CD0D00C98A1
:104D5000002850D10024CDF830B02746DFF814B435
:104D600034E00C9800EB800040000C9002F028FE2C
:104D7000DDF83090ADF84CA0ADF850A0002705ACA0
:104D8000ADF84EA0ADF852A0B9F1000F16D901212F
:104D90002046FFF737FB218F00F0D2FB20874FF032
:104DA000FF312046FFF72EFB218F00F0C9FB208743
:104DB000002F08BF60877F1C4F45E8D302F00AFE32
:104DC00000F074FD02F010FE04460F4600225B4620
:104DD0002046394604F09EFCC3D32046394604F0F1
:104DE00059FC002808BF01200A21B1FBF0F00C9902
:104DF000401C48430C9002F0E3FD0C9FADF84CA022
:104E0000ADF850A005ACADF84EA0ADF852A04FF0F3
:104E10000009002F18D901212046FFF7F3FA218F4E
:104E200000F08EFB20874FF0FF312046FFF7EAFAB3
:104E3000218F00F085FB2087B9F1000F08BF608744
:104E400009F10109B945E6D302F0C4FD00F02EFDD9
:104E5000CDF83008BDF91400002100F049FBBDF980
:104E600016200146104600F043FBBDF9182001460C
:104E7000104600F03DFB0B9A014612B2104600F0BE
:104E800037FB47F60532811ADFF8EC920490904226
:104E900004BF0126B9A024D010DC00F20E70B0F5DA
:104EA000005004BF0426C0A01BD000F64320B0F57C
:104EB000804F04BF0226C7A013D00AE0A1F56060AE
:104EC000FD3809D00D30B0F5C04F04BF0326CEA089
:104ED00007D04FF0FF385BE00026D7A0FBF700FAC1
:104EE00001E0FBF7FDF9D9F80000002818BF002702
:104EF00088BFDFF874B34BD907EB071005EB8004CC
:104F0000A4F840A094F8200010F0010F0DD0628F9B
:104F10003BF816309A4208D03946D4A0FBF7E0F9A6
:104F2000B4F84000401CA4F8400094F8200010F0B1
:104F3000020F0ED0D948A28F30F816309A4208D00E
:104F40003946D7A0FBF7CCF9B4F84000401CA4F8D0
:104F5000400094F8200010F0040F0ED0DD48E28FDE
:104F600030F816309A4208D03946DBA0FBF7B8F982
:104F7000B4F84000401CA4F84000B4F8400040449D
:104F80000FFA80F8781C87B2D9F800008742B3D3B3
:104F9000FFF73EF9404407B2DBA00B99FBF7A0F9FD
:104FA000DFA0DDF83018FBF79BF9DDF8300802F0E0
:104FB0001BFD02460B46E0A0FBF792F9DDF8300836
:104FC00002F012FD0022134604F034FC14D2DDF886
:104FD000300802F009FD044688460C98D9F8001004
:104FE000484304F084FB2246434604F0FBF90246A2
:104FF0000B46D7A0FBF774F9DDF8300802F0F4FC9B
:105000000022D94B04F086FB04D2D8A0FBF768F944
:10501000781C07B20C98D9F800104143E3A0FBF7C5
:105020005FF9DFF8A083E8A04146FBF759F975A1C5
:10503000EDA0FBF755F9F2A1F3A0FBF751F9F8A0A9
:105040000499FBF74DF90D9810F0010F1EBFD9F828
:105050000000002800240ED904EB041005EB8000AA
:105060002146428FF5A0FBF73BF9601C84B2D9F8CA
:105070000000A042F0D80D9810F0020F1EBFD9F822
:105080000000002800240ED904EB041005EB80007A
:105090002146828FF0A0FBF723F9601C84B2D9F877
:1050A0000000A042F0D80D9810F0040F15D0D9F8E8
:1050B0000000002818BF002425D011D904EB0410EB
:1050C00005EB80002146C28FEAA0FBF709F9601CBE
:1050D00084B2D9F80000A042F0D8D9F8000090B10D
:1050E000002400280FD900BF04EB041005EB80005A
:1050F0002146028FE6A0FBF7F3F8601C84B2D9F8D2
:105100000000A042F0D8002FC8BFE8A003D024DDE3
:10511000FBF7E6F824E0EA48FBF7E2F8032E1FD19C
:10512000DDF8300802F060FC06460C460C98D9F811
:105130000010484304F0DBFA3246234604F052F9EB
:1051400002460B46DFA0CDF80080FBF7C9F8ACA102
:10515000E4A0FBF7C5F894A0DAE7E448FBF7C0F851
:1051600005F1420001F088F90DF6440D0020BDE87C
:10517000F08F00000000F03F30010020366B2076F9
:10518000616C69646174696F6E2072756E20706104
:1051900072616D657465727320666F7220636F72E1
:1051A000656D61726B2E0A00324B2076616C69640A
:1051B0006174696F6E2072756E20706172616D65C9
:1051C0007465727320666F7220636F72656D6172B1
:1051D0006B2E0A0050726F66696C652067656E659C
:1051E000726174696F6E2072756E20706172616D8C
:1051F000657465727320666F7220636F72656D618E
:10520000726B2E0A00000000324B20706572666FD0
:10521000726D616E63652072756E20706172616D72
:10522000657465727320666F7220636F72656D615D
:10523000726B2E0A00000000366B20706572666F7C
:10524000726D616E63652072756E20706172616D42
:10525000657465727320666F7220636F72656D612D
:10526000726B2E0A00000000BC0000205B25755DFB
:105270004552524F5221206C69737420637263202F
:10528000307825303478202D2073686F756C642059
:105290006265203078253034780A0000C60000208E
:1052A0005B25755D4552524F5221206D61747269C4
:1052B000782063726320307825303478202D207375
:1052C000686F756C64206265203078253034780A08
:1052D00000000000D00000205B25755D4552524F54
:1052E00052212073746174652063726320307825C5
:1052F000303478202D2073686F756C6420626520CF
:105300003078253034780A00436F72654D61726BD6
:105310002053697A65202020203A2025750A000054
:10532000546F74616C207469636B7320202020209B
:10533000203A2025750A0000546F74616C2074694E
:105340006D65202873656373293A2025660A00007D
:10535000497465726174696F6E732F5365632020A1
:10536000203A2025660A0000000024404552524F92
:105370005221204D757374206578656375746520BE
:10538000666F72206174206C656173742031302007
:105390007365637320666F7220612076616C696447
:1053A00020726573756C74210A000000497465727F
:1053B0006174696F6E73202020202020203A202500
:1053C000750A000060394D00436F6D70696C65723D
:1053D0002076657273696F6E203A204B65696C2088
:1053E00076657225640A0000436F6D70696C6572A2
:1053F00020666C6167732020203A2025730A000024
:10540000535441434B0000004D656D6F7279206C21
:105410006F636174696F6E20203A2025730A000063
:105420007365656463726320202020202020202083
:10543000203A203078253034780A00005B25645DFE
:105440006372636C697374202020202020203A202E
:105450003078253034780A005B25645D6372636DB3
:10546000617472697820202020203A20307825301D
:1054700034780A005B25645D6372637374617465DC
:105480002020202020203A203078253034780A004F
:105490005B25645D63726366696E616C2020202009
:1054A00020203A203078253034780A004572726F17
:1054B00072732064657465637465640A000000009B
:1054C000349B0008436F72654D61726B20312E3042
:1054D000203A202566202F204B65696C2076657266
:1054E00025640000202F202573000000D09A0008BA
:1054F0001FFA80FC0CF0FF005FF0080280EA010355
:1055000013F0010F4FEA50001ABF4AF2010383EA79
:1055100051014908521EF1D108464FEA1C220821C8
:105520004AF2010C82EA000313F0010F4FEA520223
:1055300014BF8CEA50004008491EF3D170470000A8
:105540000346C0B25FF0080280EA010C1CF0010FB4
:105550004FEA50001ABF4AF2010C8CEA5101490887
:10556000521EF1D108461A0A08214AF2010C00BF66
:1055700082EA000313F0010F4FEA520214BF8CEAD3
:1055800050004008491EF3D1704710B5044600B2E0
:10559000FFF7AEFF22140146BDE810401046FFF7AA
:1055A000A7BF000070B5464D0C466E1E062850D2AF
:1055B000DFE800F003274B5C6172062221464FF4BE
:1055C0001060FEF717FB042204F10E019001FEF7B4
:1055D00011FB042204F10A014FF4A060FEF70AFB5C
:1055E0000422A11D4FF47060FEF704FBA07C28701C
:1055F000E07C6870207DA870607DE870A07D3070D0
:105600005BE0062221464FF41060FEF785FA042283
:1056100004F10E019001FEF77FFA042204F10A0161
:105620004FF4A060FEF778FA0422A11D4FF47060D9
:10563000FEF772FA2878A0746878E074A87820756C
:10564000E87860753078A07537E0247834F03A0057
:1056500002D04FF0FF3070BD0020FEF72DFA40EA77
:1056600004010020FEF796FA002070BD0020FEF72E
:1056700023FA207021E021784FF4D850FEF78AFAFF
:105680006088010A4FF4C850FEF784FAA1784FF4FD
:10569000D050FEF77FFA10E04FF4D850FEF70CFA26
:1056A00020704FF4D050FEF707FA05464FF4C8506B
:1056B000FEF702FA05EB00206080002070BD0000BC
:1056C0004D01002010B5042208494FF47060FEF728
:1056D00091FA042206494FF4A060FEF78BFA0422E7
:1056E000BDE8104003499001FEF784BA870100200D
:1056F0008F0100208B01002010B580210020FEF7D3
:1057000049FA0020FEF7D8F9BDE810400622024908
:105710004FF41060FEF76EBAC001002010B5802172
:105720000020FEF737FA0020FEF7C6F904220C49E4
:105730004FF47060FEF75EFA04220A494FF4A0604D
:10574000FEF758FA042208499001FEF753FABDE823
:105750001040062205494FF41060FEF74BBA0000D6
:10576000870100208F0100208B010020C001002054
:105770008A68002A01DCFBF7B3BC521E8A604A68C3
:10578000C0B2531C4B6010707047000004490A7887
:1057900002704A7842708A788270C978C170704706
:1057A0008B01002004490A7802704A7842708A7896
:1057B0008270C978C17070478701002004490A7857
:1057C00002704A7842708A788270C978C1707047D6
:1057D0008F0100202DE9F04142F2086101EB4015F4
:1057E00042F20871002601EB40142846FEF764F9E6
:1057F00007462046FEF760F900EB072007043F0C40
:1058000009D02846FEF758F906462046FEF754F917
:1058100000EB062086B2BE42E7D13046BDE8F081FB
:105820002DE9F04142F2080101EB401542F2081166
:10583000002601EB40142846FEF73EF907462046B5
:10584000FEF73AF900EB072007043F0C09D0284681
:10585000FEF732F906462046FEF72EF900EB062049
:1058600086B2BE42E7D13046BDE8F081062810D2AC
:10587000DFE800F00F0306080B0D074800687047CB
:10588000064800E00648006870470648FBE70648FF
:10589000F9E70020704700001C01002020010020D3
:1058A00024010020280100202C010020024841682A
:1058B0000068081A704700003401002090B0FCF71F
:1058C000D3FD002402250A940126102000950E9491
:1058D000CDE904600194029403944FF4601006949F
:1058E00008940C9409900B940D9407956846FCF766
:1058F0004BFF08B172B6FEE70F20CDE90A054FF461
:105900008060CDE90C4002210AA80E94FCF746FE07
:1059100008B172B6FEE75C480094019402940394C7
:10592000816941F010018161816901F010010491E8
:10593000816941F020018161816901F020010491B8
:10594000816941F004018161816901F004010491E0
:10595000816941F00801816180694C4F00F00800C5
:105960000490002240213846FCF76AFD4020CDE932
:10597000000669463846CDE90245FCF76FFC45480C
:10598000434901604FF4E131C0E901140C21C460C6
:10599000C0E904418461C461FDF791FD08B172B6AC
:1059A000FEE73E483C4901604FF48271C0E90114B2
:1059B000C4604FF400710461C0E905410821C0E9E9
:1059C00007140A214462C0E90A41FDF7C1F808B191
:1059D00072B6FEE733480094019402940394049451
:1059E0002F490594016041F61F41C0E9011442F2BC
:1059F0000F71C0E903148461FDF767FC08B172B64A
:105A0000FEE74FF48050009069462648FDF7A0FC61
:105A100008B172B6FEE7049404A922480594FDF784
:105A20001DFC08B172B6FEE71FA0FAF759FCFEF79D
:105A30001BF9002804BF24A0FAF752FC28A0FAF7AB
:105A40004FFCFEF775F9002804BF2DA0FAF748FCBB
:105A500032A0FAF745FC00F08BFA374A002101200A
:105A600000F0FEFA354C364A00212061354800F03E
:105A70008BFBA060344A0021344800F085FBE060D5
:105A800000F092FAFEE7000000100240000C014016
:105A9000004400407C02002000300140DC01002076
:105AA000000800403402002053746172742057498A
:105AB0005A204368697020496E697469616C697A1B
:105AC00065642E2E2E0A000057495A5F436869709C
:105AD000496E6974206661696C65642E0A00000075
